{
  "_format": "hh-sol-artifact-1",
  "contractName": "NFT",
  "sourceName": "contracts/NFT.sol",
  "abi": [
    {
      "inputs": [
        {
          "internalType": "address",
          "name": "marketplaceAddress",
          "type": "address"
        }
      ],
      "stateMutability": "nonpayable",
      "type": "constructor"
    },
    {
      "anonymous": false,
      "inputs": [
        {
          "indexed": true,
          "internalType": "address",
          "name": "owner",
          "type": "address"
        },
        {
          "indexed": true,
          "internalType": "address",
          "name": "approved",
          "type": "address"
        },
        {
          "indexed": true,
          "internalType": "uint256",
          "name": "tokenId",
          "type": "uint256"
        }
      ],
      "name": "Approval",
      "type": "event"
    },
    {
      "anonymous": false,
      "inputs": [
        {
          "indexed": true,
          "internalType": "address",
          "name": "owner",
          "type": "address"
        },
        {
          "indexed": true,
          "internalType": "address",
          "name": "operator",
          "type": "address"
        },
        {
          "indexed": false,
          "internalType": "bool",
          "name": "approved",
          "type": "bool"
        }
      ],
      "name": "ApprovalForAll",
      "type": "event"
    },
    {
      "anonymous": false,
      "inputs": [
        {
          "indexed": true,
          "internalType": "address",
          "name": "from",
          "type": "address"
        },
        {
          "indexed": true,
          "internalType": "address",
          "name": "to",
          "type": "address"
        },
        {
          "indexed": true,
          "internalType": "uint256",
          "name": "tokenId",
          "type": "uint256"
        }
      ],
      "name": "Transfer",
      "type": "event"
    },
    {
      "inputs": [
        {
          "internalType": "address",
          "name": "to",
          "type": "address"
        },
        {
          "internalType": "uint256",
          "name": "tokenId",
          "type": "uint256"
        }
      ],
      "name": "approve",
      "outputs": [],
      "stateMutability": "nonpayable",
      "type": "function"
    },
    {
      "inputs": [
        {
          "internalType": "address",
          "name": "owner",
          "type": "address"
        }
      ],
      "name": "balanceOf",
      "outputs": [
        {
          "internalType": "uint256",
          "name": "",
          "type": "uint256"
        }
      ],
      "stateMutability": "view",
      "type": "function"
    },
    {
      "inputs": [
        {
          "internalType": "uint256",
          "name": "tokenId",
          "type": "uint256"
        }
      ],
      "name": "getApproved",
      "outputs": [
        {
          "internalType": "address",
          "name": "",
          "type": "address"
        }
      ],
      "stateMutability": "view",
      "type": "function"
    },
    {
      "inputs": [
        {
          "internalType": "address",
          "name": "owner",
          "type": "address"
        },
        {
          "internalType": "address",
          "name": "operator",
          "type": "address"
        }
      ],
      "name": "isApprovedForAll",
      "outputs": [
        {
          "internalType": "bool",
          "name": "",
          "type": "bool"
        }
      ],
      "stateMutability": "view",
      "type": "function"
    },
    {
      "inputs": [
        {
          "internalType": "string",
          "name": "tokenURI",
          "type": "string"
        }
      ],
      "name": "mintToken",
      "outputs": [
        {
          "internalType": "uint256",
          "name": "",
          "type": "uint256"
        }
      ],
      "stateMutability": "nonpayable",
      "type": "function"
    },
    {
      "inputs": [],
      "name": "name",
      "outputs": [
        {
          "internalType": "string",
          "name": "",
          "type": "string"
        }
      ],
      "stateMutability": "view",
      "type": "function"
    },
    {
      "inputs": [
        {
          "internalType": "uint256",
          "name": "tokenId",
          "type": "uint256"
        }
      ],
      "name": "ownerOf",
      "outputs": [
        {
          "internalType": "address",
          "name": "",
          "type": "address"
        }
      ],
      "stateMutability": "view",
      "type": "function"
    },
    {
      "inputs": [
        {
          "internalType": "address",
          "name": "from",
          "type": "address"
        },
        {
          "internalType": "address",
          "name": "to",
          "type": "address"
        },
        {
          "internalType": "uint256",
          "name": "tokenId",
          "type": "uint256"
        }
      ],
      "name": "safeTransferFrom",
      "outputs": [],
      "stateMutability": "nonpayable",
      "type": "function"
    },
    {
      "inputs": [
        {
          "internalType": "address",
          "name": "from",
          "type": "address"
        },
        {
          "internalType": "address",
          "name": "to",
          "type": "address"
        },
        {
          "internalType": "uint256",
          "name": "tokenId",
          "type": "uint256"
        },
        {
          "internalType": "bytes",
          "name": "_data",
          "type": "bytes"
        }
      ],
      "name": "safeTransferFrom",
      "outputs": [],
      "stateMutability": "nonpayable",
      "type": "function"
    },
    {
      "inputs": [
        {
          "internalType": "address",
          "name": "operator",
          "type": "address"
        },
        {
          "internalType": "bool",
          "name": "approved",
          "type": "bool"
        }
      ],
      "name": "setApprovalForAll",
      "outputs": [],
      "stateMutability": "nonpayable",
      "type": "function"
    },
    {
      "inputs": [
        {
          "internalType": "bytes4",
          "name": "interfaceId",
          "type": "bytes4"
        }
      ],
      "name": "supportsInterface",
      "outputs": [
        {
          "internalType": "bool",
          "name": "",
          "type": "bool"
        }
      ],
      "stateMutability": "view",
      "type": "function"
    },
    {
      "inputs": [],
      "name": "symbol",
      "outputs": [
        {
          "internalType": "string",
          "name": "",
          "type": "string"
        }
      ],
      "stateMutability": "view",
      "type": "function"
    },
    {
      "inputs": [
        {
          "internalType": "uint256",
          "name": "tokenId",
          "type": "uint256"
        }
      ],
      "name": "tokenURI",
      "outputs": [
        {
          "internalType": "string",
          "name": "",
          "type": "string"
        }
      ],
      "stateMutability": "view",
      "type": "function"
    },
    {
      "inputs": [
        {
          "internalType": "address",
          "name": "from",
          "type": "address"
        },
        {
          "internalType": "address",
          "name": "to",
          "type": "address"
        },
        {
          "internalType": "uint256",
          "name": "tokenId",
          "type": "uint256"
        }
      ],
      "name": "transferFrom",
      "outputs": [],
      "stateMutability": "nonpayable",
      "type": "function"
    }
  ],
  "bytecode": "0x60806040523480156200001157600080fd5b50604051620018ec380380620018ec83398101604081905262000034916200017a565b604080518082018252601481527f446563656e7472616c697a656447616c6c65727900000000000000000000000060208083019182528351808501909452600384526244434760e81b9084015281519192916200009491600091620000d4565b508051620000aa906001906020840190620000d4565b5050600880546001600160a01b0319166001600160a01b03939093169290921790915550620001e7565b828054620000e290620001aa565b90600052602060002090601f01602090048101928262000106576000855562000151565b82601f106200012157805160ff191683800117855562000151565b8280016001018555821562000151579182015b828111156200015157825182559160200191906001019062000134565b506200015f92915062000163565b5090565b5b808211156200015f576000815560010162000164565b6000602082840312156200018c578081fd5b81516001600160a01b0381168114620001a3578182fd5b9392505050565b600181811c90821680620001bf57607f821691505b60208210811415620001e157634e487b7160e01b600052602260045260246000fd5b50919050565b6116f580620001f76000396000f3fe608060405234801561001057600080fd5b50600436106100ea5760003560e01c80636352211e1161008c578063a22cb46511610066578063a22cb465146101e1578063b88d4fde146101f4578063c87b56dd14610207578063e985e9c51461021a57600080fd5b80636352211e146101b357806370a08231146101c657806395d89b41146101d957600080fd5b8063095ea7b3116100c8578063095ea7b31461015757806323b872dd1461016c57806333eba49a1461017f57806342842e0e146101a057600080fd5b806301ffc9a7146100ef57806306fdde0314610117578063081812fc1461012c575b600080fd5b6101026100fd3660046113a7565b610256565b60405190151581526020015b60405180910390f35b61011f6102a8565b60405161010e91906114d5565b61013f61013a366004611425565b61033a565b6040516001600160a01b03909116815260200161010e565b61016a61016536600461137e565b6103c7565b005b61016a61017a366004611290565b6104dd565b61019261018d3660046113df565b61050e565b60405190815260200161010e565b61016a6101ae366004611290565b610563565b61013f6101c1366004611425565b61057e565b6101926101d4366004611244565b6105f5565b61011f61067c565b61016a6101ef366004611344565b61068b565b61016a6102023660046112cb565b61069a565b61011f610215366004611425565b6106d2565b61010261022836600461125e565b6001600160a01b03918216600090815260056020908152604080832093909416825291909152205460ff1690565b60006001600160e01b031982166380ac58cd60e01b148061028757506001600160e01b03198216635b5e139f60e01b145b806102a257506301ffc9a760e01b6001600160e01b03198316145b92915050565b6060600080546102b7906115fa565b80601f01602080910402602001604051908101604052809291908181526020018280546102e3906115fa565b80156103305780601f1061030557610100808354040283529160200191610330565b820191906000526020600020905b81548152906001019060200180831161031357829003601f168201915b5050505050905090565b600061034582610849565b6103ab5760405162461bcd60e51b815260206004820152602c60248201527f4552433732313a20617070726f76656420717565727920666f72206e6f6e657860448201526b34b9ba32b73a103a37b5b2b760a11b60648201526084015b60405180910390fd5b506000908152600460205260409020546001600160a01b031690565b60006103d28261057e565b9050806001600160a01b0316836001600160a01b031614156104405760405162461bcd60e51b815260206004820152602160248201527f4552433732313a20617070726f76616c20746f2063757272656e74206f776e656044820152603960f91b60648201526084016103a2565b336001600160a01b038216148061045c575061045c8133610228565b6104ce5760405162461bcd60e51b815260206004820152603860248201527f4552433732313a20617070726f76652063616c6c6572206973206e6f74206f7760448201527f6e6572206e6f7220617070726f76656420666f7220616c6c000000000000000060648201526084016103a2565b6104d88383610866565b505050565b6104e733826108d4565b6105035760405162461bcd60e51b81526004016103a29061153a565b6104d88383836109ba565b600061051e600780546001019055565b600061052960075490565b600854909150610542906001600160a01b031682610b5a565b61054c8184610c8d565b6008546102a2906001600160a01b0316600161068b565b6104d88383836040518060200160405280600081525061069a565b6000818152600260205260408120546001600160a01b0316806102a25760405162461bcd60e51b815260206004820152602960248201527f4552433732313a206f776e657220717565727920666f72206e6f6e657869737460448201526832b73a103a37b5b2b760b91b60648201526084016103a2565b60006001600160a01b0382166106605760405162461bcd60e51b815260206004820152602a60248201527f4552433732313a2062616c616e636520717565727920666f7220746865207a65604482015269726f206164647265737360b01b60648201526084016103a2565b506001600160a01b031660009081526003602052604090205490565b6060600180546102b7906115fa565b610696338383610d18565b5050565b6106a433836108d4565b6106c05760405162461bcd60e51b81526004016103a29061153a565b6106cc84848484610de7565b50505050565b60606106dd82610849565b6107435760405162461bcd60e51b815260206004820152603160248201527f45524337323155524953746f726167653a2055524920717565727920666f72206044820152703737b732bc34b9ba32b73a103a37b5b2b760791b60648201526084016103a2565b6000828152600660205260408120805461075c906115fa565b80601f0160208091040260200160405190810160405280929190818152602001828054610788906115fa565b80156107d55780601f106107aa576101008083540402835291602001916107d5565b820191906000526020600020905b8154815290600101906020018083116107b857829003601f168201915b5050505050905060006107f360408051602081019091526000815290565b9050805160001415610806575092915050565b815115610838578082604051602001610820929190611469565b60405160208183030381529060405292505050919050565b61084184610e1a565b949350505050565b6000908152600260205260409020546001600160a01b0316151590565b600081815260046020526040902080546001600160a01b0319166001600160a01b038416908117909155819061089b8261057e565b6001600160a01b03167f8c5be1e5ebec7d5bd14f71427d1e84f3dd0314c0f7b2291e5b200ac8c7c3b92560405160405180910390a45050565b60006108df82610849565b6109405760405162461bcd60e51b815260206004820152602c60248201527f4552433732313a206f70657261746f7220717565727920666f72206e6f6e657860448201526b34b9ba32b73a103a37b5b2b760a11b60648201526084016103a2565b600061094b8361057e565b9050806001600160a01b0316846001600160a01b031614806109865750836001600160a01b031661097b8461033a565b6001600160a01b0316145b8061084157506001600160a01b0380821660009081526005602090815260408083209388168352929052205460ff16610841565b826001600160a01b03166109cd8261057e565b6001600160a01b031614610a355760405162461bcd60e51b815260206004820152602960248201527f4552433732313a207472616e73666572206f6620746f6b656e2074686174206960448201526839903737ba1037bbb760b91b60648201526084016103a2565b6001600160a01b038216610a975760405162461bcd60e51b8152602060048201526024808201527f4552433732313a207472616e7366657220746f20746865207a65726f206164646044820152637265737360e01b60648201526084016103a2565b610aa2600082610866565b6001600160a01b0383166000908152600360205260408120805460019290610acb9084906115b7565b90915550506001600160a01b0382166000908152600360205260408120805460019290610af990849061158b565b909155505060008181526002602052604080822080546001600160a01b0319166001600160a01b0386811691821790925591518493918716917fddf252ad1be2c89b69c2b068fc378daa952ba7f163c4a11628f55a4df523b3ef91a4505050565b6001600160a01b038216610bb05760405162461bcd60e51b815260206004820181905260248201527f4552433732313a206d696e7420746f20746865207a65726f206164647265737360448201526064016103a2565b610bb981610849565b15610c065760405162461bcd60e51b815260206004820152601c60248201527f4552433732313a20746f6b656e20616c7265616479206d696e7465640000000060448201526064016103a2565b6001600160a01b0382166000908152600360205260408120805460019290610c2f90849061158b565b909155505060008181526002602052604080822080546001600160a01b0319166001600160a01b03861690811790915590518392907fddf252ad1be2c89b69c2b068fc378daa952ba7f163c4a11628f55a4df523b3ef908290a45050565b610c9682610849565b610cf95760405162461bcd60e51b815260206004820152602e60248201527f45524337323155524953746f726167653a2055524920736574206f66206e6f6e60448201526d32bc34b9ba32b73a103a37b5b2b760911b60648201526084016103a2565b600082815260066020908152604090912082516104d892840190611119565b816001600160a01b0316836001600160a01b03161415610d7a5760405162461bcd60e51b815260206004820152601960248201527f4552433732313a20617070726f766520746f2063616c6c65720000000000000060448201526064016103a2565b6001600160a01b03838116600081815260056020908152604080832094871680845294825291829020805460ff191686151590811790915591519182527f17307eab39ab6107e8899845ad3d59bd9653f200f220920489ca2b5937696c31910160405180910390a3505050565b610df28484846109ba565b610dfe84848484610ef2565b6106cc5760405162461bcd60e51b81526004016103a2906114e8565b6060610e2582610849565b610e895760405162461bcd60e51b815260206004820152602f60248201527f4552433732314d657461646174613a2055524920717565727920666f72206e6f60448201526e3732bc34b9ba32b73a103a37b5b2b760891b60648201526084016103a2565b6000610ea060408051602081019091526000815290565b90506000815111610ec05760405180602001604052806000815250610eeb565b80610eca84610fff565b604051602001610edb929190611469565b6040516020818303038152906040525b9392505050565b60006001600160a01b0384163b15610ff457604051630a85bd0160e11b81526001600160a01b0385169063150b7a0290610f36903390899088908890600401611498565b602060405180830381600087803b158015610f5057600080fd5b505af1925050508015610f80575060408051601f3d908101601f19168201909252610f7d918101906113c3565b60015b610fda573d808015610fae576040519150601f19603f3d011682016040523d82523d6000602084013e610fb3565b606091505b508051610fd25760405162461bcd60e51b81526004016103a2906114e8565b805181602001fd5b6001600160e01b031916630a85bd0160e11b149050610841565b506001949350505050565b6060816110235750506040805180820190915260018152600360fc1b602082015290565b8160005b811561104d578061103781611635565b91506110469050600a836115a3565b9150611027565b60008167ffffffffffffffff81111561107657634e487b7160e01b600052604160045260246000fd5b6040519080825280601f01601f1916602001820160405280156110a0576020820181803683370190505b5090505b8415610841576110b56001836115b7565b91506110c2600a86611650565b6110cd90603061158b565b60f81b8183815181106110f057634e487b7160e01b600052603260045260246000fd5b60200101906001600160f81b031916908160001a905350611112600a866115a3565b94506110a4565b828054611125906115fa565b90600052602060002090601f016020900481019282611147576000855561118d565b82601f1061116057805160ff191683800117855561118d565b8280016001018555821561118d579182015b8281111561118d578251825591602001919060010190611172565b5061119992915061119d565b5090565b5b80821115611199576000815560010161119e565b600067ffffffffffffffff808411156111cd576111cd611690565b604051601f8501601f19908116603f011681019082821181831017156111f5576111f5611690565b8160405280935085815286868601111561120e57600080fd5b858560208301376000602087830101525050509392505050565b80356001600160a01b038116811461123f57600080fd5b919050565b600060208284031215611255578081fd5b610eeb82611228565b60008060408385031215611270578081fd5b61127983611228565b915061128760208401611228565b90509250929050565b6000806000606084860312156112a4578081fd5b6112ad84611228565b92506112bb60208501611228565b9150604084013590509250925092565b600080600080608085870312156112e0578081fd5b6112e985611228565b93506112f760208601611228565b925060408501359150606085013567ffffffffffffffff811115611319578182fd5b8501601f81018713611329578182fd5b611338878235602084016111b2565b91505092959194509250565b60008060408385031215611356578182fd5b61135f83611228565b915060208301358015158114611373578182fd5b809150509250929050565b60008060408385031215611390578182fd5b61139983611228565b946020939093013593505050565b6000602082840312156113b8578081fd5b8135610eeb816116a6565b6000602082840312156113d4578081fd5b8151610eeb816116a6565b6000602082840312156113f0578081fd5b813567ffffffffffffffff811115611406578182fd5b8201601f81018413611416578182fd5b610841848235602084016111b2565b600060208284031215611436578081fd5b5035919050565b600081518084526114558160208601602086016115ce565b601f01601f19169290920160200192915050565b6000835161147b8184602088016115ce565b83519083019061148f8183602088016115ce565b01949350505050565b6001600160a01b03858116825284166020820152604081018390526080606082018190526000906114cb9083018461143d565b9695505050505050565b602081526000610eeb602083018461143d565b60208082526032908201527f4552433732313a207472616e7366657220746f206e6f6e20455243373231526560408201527131b2b4bb32b91034b6b83632b6b2b73a32b960711b606082015260800190565b60208082526031908201527f4552433732313a207472616e736665722063616c6c6572206973206e6f74206f6040820152701ddb995c881b9bdc88185c1c1c9bdd9959607a1b606082015260800190565b6000821982111561159e5761159e611664565b500190565b6000826115b2576115b261167a565b500490565b6000828210156115c9576115c9611664565b500390565b60005b838110156115e95781810151838201526020016115d1565b838111156106cc5750506000910152565b600181811c9082168061160e57607f821691505b6020821081141561162f57634e487b7160e01b600052602260045260246000fd5b50919050565b600060001982141561164957611649611664565b5060010190565b60008261165f5761165f61167a565b500690565b634e487b7160e01b600052601160045260246000fd5b634e487b7160e01b600052601260045260246000fd5b634e487b7160e01b600052604160045260246000fd5b6001600160e01b0319811681146116bc57600080fd5b5056fea2646970667358221220d74148cd28249247f77f615d2b0d9b3e1db64314f3bdf3b333532c4acccae90e64736f6c63430008040033",
  "linkReferences": {},
  "deployedLinkReferences": {}
}