{
  "_format": "hh-sol-artifact-1",
  "contractName": "Gallery",
  "sourceName": "contracts/Gallery.sol",
  "abi": [
    {
      "inputs": [],
      "stateMutability": "nonpayable",
      "type": "constructor"
    },
    {
      "inputs": [],
      "name": "fetchAllTokens",
      "outputs": [
        {
          "components": [
            {
              "internalType": "uint256",
              "name": "itemId",
              "type": "uint256"
            },
            {
              "internalType": "address",
              "name": "nftContract",
              "type": "address"
            },
            {
              "internalType": "uint256",
              "name": "tokenId",
              "type": "uint256"
            },
            {
              "internalType": "address payable",
              "name": "seller",
              "type": "address"
            },
            {
              "internalType": "address payable",
              "name": "owner",
              "type": "address"
            },
            {
              "internalType": "uint256",
              "name": "price",
              "type": "uint256"
            },
            {
              "internalType": "bool",
              "name": "sold",
              "type": "bool"
            }
          ],
          "internalType": "struct Gallery.GalleryToken[]",
          "name": "",
          "type": "tuple[]"
        }
      ],
      "stateMutability": "view",
      "type": "function"
    },
    {
      "inputs": [],
      "name": "fetchMyTokens",
      "outputs": [
        {
          "components": [
            {
              "internalType": "uint256",
              "name": "itemId",
              "type": "uint256"
            },
            {
              "internalType": "address",
              "name": "nftContract",
              "type": "address"
            },
            {
              "internalType": "uint256",
              "name": "tokenId",
              "type": "uint256"
            },
            {
              "internalType": "address payable",
              "name": "seller",
              "type": "address"
            },
            {
              "internalType": "address payable",
              "name": "owner",
              "type": "address"
            },
            {
              "internalType": "uint256",
              "name": "price",
              "type": "uint256"
            },
            {
              "internalType": "bool",
              "name": "sold",
              "type": "bool"
            }
          ],
          "internalType": "struct Gallery.GalleryToken[]",
          "name": "",
          "type": "tuple[]"
        }
      ],
      "stateMutability": "view",
      "type": "function"
    },
    {
      "inputs": [],
      "name": "fetchTokensForSale",
      "outputs": [
        {
          "components": [
            {
              "internalType": "uint256",
              "name": "itemId",
              "type": "uint256"
            },
            {
              "internalType": "address",
              "name": "nftContract",
              "type": "address"
            },
            {
              "internalType": "uint256",
              "name": "tokenId",
              "type": "uint256"
            },
            {
              "internalType": "address payable",
              "name": "seller",
              "type": "address"
            },
            {
              "internalType": "address payable",
              "name": "owner",
              "type": "address"
            },
            {
              "internalType": "uint256",
              "name": "price",
              "type": "uint256"
            },
            {
              "internalType": "bool",
              "name": "sold",
              "type": "bool"
            }
          ],
          "internalType": "struct Gallery.GalleryToken[]",
          "name": "",
          "type": "tuple[]"
        }
      ],
      "stateMutability": "view",
      "type": "function"
    },
    {
      "inputs": [],
      "name": "getListingPrice",
      "outputs": [
        {
          "internalType": "uint256",
          "name": "",
          "type": "uint256"
        }
      ],
      "stateMutability": "view",
      "type": "function"
    },
    {
      "inputs": [
        {
          "internalType": "address",
          "name": "nftContract",
          "type": "address"
        },
        {
          "internalType": "uint256",
          "name": "itemId",
          "type": "uint256"
        }
      ],
      "name": "makeSale",
      "outputs": [],
      "stateMutability": "payable",
      "type": "function"
    },
    {
      "inputs": [
        {
          "internalType": "address",
          "name": "nftContract",
          "type": "address"
        },
        {
          "internalType": "uint256",
          "name": "tokenId",
          "type": "uint256"
        },
        {
          "internalType": "uint256",
          "name": "price",
          "type": "uint256"
        }
      ],
      "name": "newGalleryItem",
      "outputs": [],
      "stateMutability": "payable",
      "type": "function"
    }
  ],
  "bytecode": "0x60806040526658d15e1762800060025534801561001b57600080fd5b506001600081905580546001600160a01b03191633179055610b42806100426000396000f3fe6080604052600436106100555760003560e01c806312e855851461005a5780632528b6761461007d5780636b090c491461009f5780639db93dc9146100b4578063d5ee86a6146100c9578063dcabb483146100dc575b600080fd5b34801561006657600080fd5b506002546040519081526020015b60405180910390f35b34801561008957600080fd5b506100926100f1565b6040516100749190610a18565b6100b26100ad3660046109e6565b61024b565b005b3480156100c057600080fd5b506100926103ed565b6100b26100d73660046109bd565b610595565b3480156100e857600080fd5b5061009261077f565b60606000806100ff60035490565b905060008167ffffffffffffffff81111561012a57634e487b7160e01b600052604160045260246000fd5b60405190808252806020026020018201604052801561016357816020015b610150610965565b8152602001906001900390816101485790505b50905060005b8281101561024357600061017e826001610aac565b600081815260056020818152604092839020835160e0810185528154815260018201546001600160a01b0390811693820193909352600282015494810194909452600381015482166060850152600481015490911660808401529081015460a0830152600681015460ff16151560c083015285519293509185908890811061021657634e487b7160e01b600052603260045260246000fd5b602090810291909101015261022c600187610aac565b95505050808061023b90610adb565b915050610169565b509392505050565b600260005414156102a35760405162461bcd60e51b815260206004820152601f60248201527f5265656e7472616e637947756172643a207265656e7472616e742063616c6c0060448201526064015b60405180910390fd5b600260008190555434146103115760405162461bcd60e51b815260206004820152602f60248201527f496e73756666696369656e742066756e64732070726f766964656420666f722060448201526e03634b9ba34b73390383934b1b2971608d1b606482015260840161029a565b61031f600380546001019055565b600061032a60035490565b6040805160e0810182528281526001600160a01b039687166020808301918252828401978852336060840190815260006080850181815260a08601998a5260c0860182815297825260059384905295812094518555925160018581018054928d166001600160a01b0319938416179055995160028601559051600385018054918c16918316919091179055935160048401805491909a16941693909317909755935190840155516006909201805492151560ff1990931692909217909155509055565b606060006103fa60035490565b9050600061040760045490565b6003546104149190610ac4565b90506000808267ffffffffffffffff81111561044057634e487b7160e01b600052604160045260246000fd5b60405190808252806020026020018201604052801561047957816020015b610466610965565b81526020019060019003908161045e5790505b50905060005b8481101561058c576000600581610497846001610aac565b81526020810191909152604001600020600401546001600160a01b0316141561057a5760006104c7826001610aac565b600081815260056020818152604092839020835160e0810185528154815260018201546001600160a01b0390811693820193909352600282015494810194909452600381015482166060850152600481015490911660808401529081015460a0830152600681015460ff16151560c083015285519293509185908790811061055f57634e487b7160e01b600052603260045260246000fd5b6020908102919091010152610575600186610aac565b945050505b8061058481610adb565b91505061047f565b50949350505050565b600260005414156105e85760405162461bcd60e51b815260206004820152601f60248201527f5265656e7472616e637947756172643a207265656e7472616e742063616c6c00604482015260640161029a565b60026000818155828152600560208190526040909120908101549101543482146106485760405162461bcd60e51b81526020600482015260116024820152705375626d6974207468652070726963652160781b604482015260640161029a565b6000838152600560205260408082206003015490516001600160a01b03909116913480156108fc02929091818181858888f19350505050158015610690573d6000803e3d6000fd5b506040516323b872dd60e01b8152306004820152336024820152604481018290526001600160a01b038516906323b872dd90606401600060405180830381600087803b1580156106df57600080fd5b505af11580156106f3573d6000803e3d6000fd5b5050506000848152600560205260409020600480820180546001600160a01b031916331790556006909101805460ff19166001179055610737915080546001019055565b6001546002546040516001600160a01b039092169181156108fc0291906000818181858888f19350505050158015610773573d6000803e3d6000fd5b50506001600055505050565b6060600061078c60035490565b905060008060005b838110156107ef5733600560006107ac846001610aac565b81526020810191909152604001600020600401546001600160a01b031614156107dd576107da600184610aac565b92505b806107e781610adb565b915050610794565b5060008267ffffffffffffffff81111561081957634e487b7160e01b600052604160045260246000fd5b60405190808252806020026020018201604052801561085257816020015b61083f610965565b8152602001906001900390816108375790505b50905060005b8481101561058c573360056000610870846001610aac565b81526020810191909152604001600020600401546001600160a01b031614156109535760006108a0826001610aac565b600081815260056020818152604092839020835160e0810185528154815260018201546001600160a01b0390811693820193909352600282015494810194909452600381015482166060850152600481015490911660808401529081015460a0830152600681015460ff16151560c083015285519293509185908790811061093857634e487b7160e01b600052603260045260246000fd5b602090810291909101015261094e600186610aac565b945050505b8061095d81610adb565b915050610858565b6040805160e081018252600080825260208201819052918101829052606081018290526080810182905260a0810182905260c081019190915290565b80356001600160a01b03811681146109b857600080fd5b919050565b600080604083850312156109cf578182fd5b6109d8836109a1565b946020939093013593505050565b6000806000606084860312156109fa578081fd5b610a03846109a1565b95602085013595506040909401359392505050565b602080825282518282018190526000919060409081850190868401855b82811015610a9f57815180518552868101516001600160a01b039081168887015286820151878701526060808301518216908701526080808301519091169086015260a0808201519086015260c09081015115159085015260e09093019290850190600101610a35565b5091979650505050505050565b60008219821115610abf57610abf610af6565b500190565b600082821015610ad657610ad6610af6565b500390565b6000600019821415610aef57610aef610af6565b5060010190565b634e487b7160e01b600052601160045260246000fdfea2646970667358221220d999f4f8fe857627a2518329638fee68bbf8e78290189711a45a1717a963407364736f6c63430008040033",
  "linkReferences": {},
  "deployedLinkReferences": {}
}